:0A0000000C9460000C9400000C94B6
:10000A0000000C9400000C9400000C9400000C9466
:10001A0000000C9400000C9400000C9400000C9456
:10002A0000000C9400000C9400000C9400000C9446
:10003A0000000C9400000C9400000C9400000C9436
:10004A0000000C9400000C9400000C9400000C9426
:10005A0000000C9400000C9400000C9400000C9416
:10006A0000000C9400000C9400000C9400000C9406
:10007A000000416C636F686F6C204C6576656C3A62
:10008A0000416C636F686F6C3A20252E32666D678B
:10009A002F4C0D0A00002D4E414E000001002D4E3E
:1000AA00414E00494E4600000F0000027C0001004C
:1000BA000F02A6000000F894EE27EFBBF1E0F5BFAF
:1000CA00E5BFF8E1A895A4B7A77FA4BFF0936000A5
:1000DA00E09360008DE0A2E0BB27ED938A95E9F7F3
:1000EA0080E094E0A0E0B1E0ED930197E9F7E2EB5C
:1000FA00F0E085919591009761F0A591B5910590F1
:10010A001590BF01F00105900D920197E1F7FB01EF
:10011A00F0CFE0E0EEBBEABDEBBDEFEFEDBFE4E010
:10012A00EEBFC0E0D2E00C948901E0E0E093C500A4
:10013A00E1E8E093C400E8E0E093C100E6E0E09380
:10014A00C2000895AA93E091C000E072E1F3E88149
:10015A00E093C60050C0BA93AA93A881B981EC91E2
:10016A00E03021F00E94DD07EDDFF7CF7FC0E0E449
:10017A00E0937C00E6E8E0937A000895E0917A0043
:10018A00E064E0937A00E0917A00E074E1F7E091AC
:10019A007800F09179000895AA93E881E093BB0072
:1001AA00E4E8E093BC00E091BC00E078E1F323C00E
:1001BA00E4EAE093BC00E091BC00E078E1F3089542
:1001CA00E4E9E093BC0083E48A95F1F70895AA93E1
:1001DA00A881E2DF10C0AA93E881EC60AE2FF7DFB6
:1001EA0087E08A95F1F7E881E860AE2FF0DF8AEFC1
:1001FA0090E00197F1F721960895AA931A930A932A
:10020A00EA81E07F1E2FEA81E295E07F0E94E407FF
:10021A0020C0AA931A930A93EA81E07FE1601E2F15
:10022A00EA81E295E07FE1600E94E40712C0A1E062
:10023A00E4DFA2E034C0AA931A93A981A03019F48A
:10024A00EA81E05802C0EA81E0541E2FA12FD5DFCF
:10025A00188123960895BA93AA93A881B981EC913B
:10026A00E03021F00E94DD07D4DFF7CF229608950F
:10027A00E0E0E093B900E0E2E093B800A2E3B0E086
:10028A000E943309A3E3B9DFA2E3B7DFA8E2B5DF2F
:10029A00ACE0B3DFA6E0B1DFA1E0AFDFA5E0B0E0FC
:1002AA000E94330908950E94960B0E94B90B10E12F
:1002BA0000E00E94F9070E94AC0B14F000E015C0A0
:1002CA000E94FE070E94E30A10F0012F0EC00E944E
:1002DA00FE070E949E0ADF01CB01E12F0E9403085C
:1002EA000E9409080E948D090E2F30E0311740F450
:1002FA00301710F4AFEF01C0A0E28BDF3F5FF6CFFB
:10030A000E94C00B2C960895E0970FDF30DFB0DF14
:10031A0035DF8F01002E012A21F4E0E00E948C0BC8
:10032A003FC0F801662777270E94C609A0E0B0EC13
:10033A008FE794E40E949E0ADF01CB010E94120813
:10034A000E941708A0E0B0E48CE196E40E941C0821
:10035A000E942308E0E0F0E06AEF75E40E949E0A3A
:10036A00E887F9876A877B870E94F907EDECFCEC3E
:10037A006CEC7EE30E949E0A0E94910BA0E0B0E022
:10038A0080E290EC0E94C9060E9428080E942D086B
:10039A00E9EEF6E261EF7FE30E94500A0E9432081A
:1003AA00AB81AA231AF4E0E00E948C0B0E94820B14
:1003BA000E9435080E94E30A09F008F404C00E946A
:1003CA0035080E94320833DFE0E0EA93A0E033DF29
:1003DA00A0E0B2E040DFE0E0EA93A1E02CDF0E9477
:1003EA003A080E94910B0E943D085DDFFE0170965B
:1003FA00FA93EA93EBE8F0E0FA93EA930E94420850
:10040A000E94910B84E00E9437052896DE015096DF
:10041A00A2DEA8EEB3E00E9433097ACFFFCFBA93E7
:10042A00AA931A930A93AA81BB8112960E946E0B11
:10043A00309729F1AA81BB8114960E946E0B8F0115
:10044A00309761F00230E0E01E0780F0F801319742
:10045A008F01AA81BB811496ED93FC93AA81BB817B
:10046A0012960E9447083197AC81A083AA81BB816A
:10047A000E946E0BFF2312F00E94470806C0AA8151
:10048A00BB81EFEFFFEFED93FC931981088125966D
:10049A0008950E944D08E0E8EA83EFE3EB830E94A7
:1004AA00B90BEE85FF85EF3FAFEFFA0749F4E88510
:1004BA00F985FA93EA93A0EAB0E00E941B07B4C058
:1004CA00EF3FAFE7FA0749F4E885F985FA93EA932B
:1004DA00A1EAB0E00E941B07A7C0AB85A73010F0C5
:1004EA00E6E0EB871B85E12F1150E03019F00E94FE
:1004FA005408F9CFEC85FD856E857F850E94A80B8F
:10050A0021F430E00E94540831C03B850E9459080A
:10051A0009F008F40AC00E9454080E94590820F001
:10052A000E945E083F5FF9CF0DC00E94590840F44F
:10053A000E9423080E9435080E941C083150F5CFFA
:10054A000E945408EC85FD856E857F85A0E0B0E0A9
:10055A0080E09FE30E94000AEC87FD876E877F8711
:10056A000E94590818F00E945E083F5F10E0EB8570
:10057A00E11770F10E942D080E9464080E94090880
:10058A00DF01CB010E949C050E9428080E944208B4
:10059A000E9423080E949E0A0E948D090E2F0E9423
:1005AA0069080E9470080E9403080E9475080E9448
:1005BA0023080E941708EC87FD876E877F87E12F43
:1005CA001F5FE030A1F60E946908EEE2EC93CFCFFC
:1005DA000E9479083197AA85A08330302CF431958E
:1005EA00A885B985EDE203C0A885B985EBE2EC934D
:1005FA000E9479080E9479083197BF01A32FEAE087
:10060A000E94280BE05DDB01EC930E947908319788
:10061A00BF01A32FEAE00E94520BE05DDB01EC93DD
:10062A00A885B985E0E0EC930E94C00B6096089516
:10063A00BA93AA93EF9761970E94B70B10E0FE0155
:10064A00E85AFF4F0190F081E02DE887F987FE0113
:10065A00EA5AFF4F0190F081E02DEE83FF83AE81CD
:10066A00BF81E0E0F0E0ED93FC93DE01A45ABF4FB6
:10067A000E9447083197E4912E2FE03009F4E9C12E
:10068A00E12FE03039F4253211F411E002C00E9462
:10069A007F08DEC1E130C1F4253219F40E947F08D7
:1006AA00D6C112E0E0E0ED8B00E02D3211F401E05A
:1006BA00CFC12B3219F4EBE2ED8BCAC1203219F407
:1006CA00E0E2ED8BC5C102C0E23039F450E013E03C
:1006DA00203311F40068BCC102C0E33091F4203326
:1006EA0010F02A3308F007C0AAE05A9F502DE22FD3
:1006FA00E0535E0FADC140E02E3211F414E0A8C100
:10070A000FC0E43099F4203310F02A3308F008C0FF
:10071A000062AAE04A9F402DE22FE0534E0F98C193
:10072A002C3619F4026015E093C103C0E53009F0D4
:10073A008FC1E22FE33659F40E9486080E948D0881
:10074A000E948608A481AA930E94940880C1E53475
:10075A0011F0E53609F403C0E63609F048C0FE0197
:10076A007696EE87FF870E949A080E94720B0E9473
:10077A00A1080E94A608AD85AA2332F0AD89AB3242
:10078A0059F0A03281F017C00E94A8080E945A09A5
:10079A000E94A108EDE2ED8B07FF05C0ED89EA93FF
:1007AA000E94940808C0EE85FF853196EE87FF8780
:1007BA003197AD89A08305FF46E0263651F40E94A1
:1007CA00A8080E94910B4A93AB89BC890E944107F1
:1007DA0009C00E94A8080E94910B4A932A93AC89E7
:1007EA00BD8957DEFE0176960E94AD081EC0E3372A
:1007FA0039F40E94A6080E94B5080E94AD080EC0EE
:10080A00E037C1F40E94A6080E94B508EE87FF8768
:10081A00AE85BF850E9434071E2F08600F774030CF
:10082A0011F0411708F001C0142F40E0E0E0EC8B12
:10083A0030E06DC0E43611F0E93611F4046002C00C
:10084A00E537A1F4EAE0EC8B01FF08C0E0E0FAEC3E
:10085A006AE97BE30E94BA081AE022C0E0E1F7E203
:10086A0060E070E00E94BA0815E01AC0E83511F499
:10087A00086003C0E83709F0EAC0E0E1EC8B01FF49
:10088A0008C0E0E0F0E060E070E10E94BA0818E019
:10089A0007C0E0E0F0E160E070E00E94BA0814E00E
:1008AA00403011F00F7701C041E001FF08C00E94FB
:1008BA00A6080E949A0814960E94720B0FC002FFA3
:1008CA0007C00E94A6080E94B5080E94150B06C020
:1008DA000E94A6080E94B50866277727EA87FB8741
:1008EA006C877D8702FF12C0AD85AA2342F40E945D
:1008FA00A8080E94070B0E94A108EDE2ED8BED8982
:10090A00E03019F01F5F4F5F01C00B7F342F00FDED
:10091A0014C0151710F4351708F00FC007FF08C0E8
:10092A0002FF04C00B7F2D89115001C020E301C0D2
:10093A0020E20E947F085150ECCF141790F4006116
:10094A0002FF06C00E94BF0809F0515011504150E1
:10095A00E0E3EA930E949408503009F05150415064
:10096A00ECCF312FEC89E030B9F43030A1F003FF3D
:10097A0006C0EE85FF852591EE87FF8705C0AE8507
:10098A00BF852D91AE87BF870E947F08503009F03E
:10099A0051503150EACF51C00E94D1080E942D0B0C
:1009AA002E2F2A3030F003FF02C0295C01C0295AD9
:1009BA0001C0205D04FD21C0213360F4A889B989F2
:1009CA008A899B89A130E0E0BE07E0E08E07E0E07B
:1009DA009E0709F40BC0431740F4531710F000FFA9
:1009EA0001C010C020E207FF08C020E3006102FF37
:1009FA0004C00E94BF0809F051500E947F0850307D
:100A0A0009F0515031500E94D1080E945E0B0E9499
:100A1A00A108EC89A889B9898A899B89FF27662751
:100A2A0077270E942D0B0E94BA08E889F9896A89FA
:100A3A007B890E94A80B09F0AFCF00FF08C0503095
:100A4A0031F05150E0E2EA930E949408F8CF10E0A6
:100A5A000CCEAE81BF810E946E0B0E94BE0BEF9638
:100A6A006F960895FF92F82E26970E94B90B0E945E
:100A7A00DA08309719F4EFEFFFEF23C0DE0116967C
:100A8A000E94030B8D010E94DA08EE83FF83E0E0E7
:100A9A00E887E987DE011A960E94030B0E946E0B13
:100AAA00FA93EA931A930A93E4E1F2E0FA93EA9347
:100ABA00DE011A96BDDD9F01AE81BF81E0E0EC93B5
:100ACA00F9010E94C00B2A96FF9008950E94960B86
:100ADA007B816A81F981E88177FB770F67FD716015
:100AEA00972F9E5781F078F0983190F4AA27BB2768
:100AFA00882708948795B795A7959A95D1F7EA23F9
:100B0A00FB23682305C0E8947727EE27FF2766278B
:100B1A006F77769508F4606877F9A991B991899108
:100B2A009991EA17FB076807790797FB08950E94CE
:100B3A00960B0E94820B0E946B050E94320819F4E0
:100B4A000E943A0807C0E6F70E943A080E943D0848
:100B5A000E94F909249608950E94960B24971A93E5
:100B6A000A930E94E1080E94AC0B2CF0EFEFFFEF12
:100B7A006FE77FEF75C00E94E6080E94910BADB740
:100B8A00BEB711971F930F930E943D090F911F91B2
:100B9A000E94EB080E94E108E3EFF4E065E37FE3DB
:100BAA000E94E30A40F40E94F0080E94000A0E9490
:100BBA00EB08015010400E94E6080E943D080E947E
:100BCA00F9097F936F93FF93EF930E94E6080E94BF
:100BDA003D080E94000AAF91BF918F919F910E9498
:100BEA009E0A0E94EB080E94F0080E94F208A6E200
:100BFA00B2E485E69FE30E94500ADF01CB01EEE4EE
:100C0A00F1E164E570E40E9417080E94E1080E947D
:100C1A00500A7F936F93FF93EF930E94F908ADE414
:100C2A00B1E184ED9FE30E94F909AF91BF918F91E1
:100C3A009F910E949E0A7F936F93FF93EF93F8010F
:100C4A000E94150B0E94C609A8E1B2E781E39FE35F
:100C5A000E94500AAF91BF918F919F910E94000A02
:100C6A00198108812A9608950E94960B28971A934B
:100C7A000A930E94FE08E0E5FCEA6EEA72EC0E9422
:100C8A00E30A18F40E9403097BC00E94A8080E9484
:100C9A00A80B19F40E94120873C00E94FE08E8E12A
:100CAA00F2E761EB72E40E94E30A09F008F405C076
:100CBA00EFEFFFEF6FE77FE763C00E94FE08EBE309
:100CCA00FAEA68EB7FE30E94500A0E94A1080E9498
:100CDA00FE082DDF0E948F098F010E94FE080E94E4
:100CEA00150B0E94C6090E941708DF01CB01E0E03C
:100CFA00F0E060E07FE30E9417080E94EB080E9480
:100D0A00F0080E94F208ADE6BCE48CE69DE30E947E
:100D1A00500AA6EAB3EE86EE90E40E94000A0E9408
:100D2A00E1080E94500A0E94EB080E94F908A8E212
:100D3A00BDE886EA91E40E94000A0E9408090E941E
:100D4A00E6080E940D090E94000AA3EFB4E085EBB1
:100D5A009FE30E94500A7F936F93FF93EF930E9441
:100D6A00E1080E94F9080E94F909AF91BF918F9199
:100D7A009F910E949E0A0E94910BD8010E944E09DF
:100D8A00198108812E9608950E94960B24970E9435
:100D9A0012090E94A80B19F40E94030945C00E9477
:100DAA00F9070E94AC0B8CF40E9442080E94A80B1F
:100DBA0019F40E94120838C00E94F907CDDE0E9479
:100DCA007508DF01CB0150DF2FC00E944208DE0107
:100DDA000E948F090E94780B0E943A080E94C60955
:100DEA00DF01CB010E9442080E94B20B19F00E9457
:100DFA0003091AC00E9412090E945A09DF01CB0195
:100E0A00ABDE0E947508DF01CB012EDFE887F98788
:100E1A006A877B87E881E17019F40E94120904C08D
:100E2A000E9412090E945A092C960895BA93AA930D
:100E3A00E991F991A991B991CD0105900D920020FE
:100E4A00E1F7FC010895BA93AA93A991B991EE2703
:100E5A00FF276D91662311F03196FBCF0895BA935F
:100E6A00AA93AA27BB27E991F9910590002011F0CE
:100E7A001196FBCFFD0108950BD1E0E0EA83EFE381
:100E8A00EB831A930A93EB85FC85EF3FAFEFFA07E2
:100E9A0031F4C8D1A8EAB0E00E941B0785C0EF3F31
:100EAA00AFE7FA0731F4BED1A9EAB0E00E941B0706
:100EBA007BC0AC85AA2352F4E985FA856B857C85CB
:100ECA000E945A09B4D1B8D1EDE2EC93A885A730B3
:100EDA0010F0E6E0E8871885E12F1150E03031F094
:100EEA0097D1EDD00E94500A8ED1F6CFACD10E9494
:100EFA00000A9DD110E091D086D1A5D10E94E30AC3
:100F0A0078F086D1ADD00E94500A7DD11F5F17328A
:100F1A0030F088D1ADEAB0E00E941B0745C0EDCFA2
:100F2A00103021F489D1E0E3EC931CC0E12F115079
:100F3A00E030C1F06DD1C3D067D0DF01CB010E9490
:100F4A009C0561D180D10E949E0A0E948D090E2FB4
:100F5A0073D1C1D05DD152D00E94500A7AD162D0E9
:100F6A0066D1E4CFE885E030D9F066D1EEE2EC93C1
:100F7A00E885E150E887EF5F99F06BD171D00E9464
:100F8A00500A55D1E985FA856B857C850E948D09C1
:100F9A000E2F52D1A0D05DD131D044D048D1E8CF64
:100FAA00AE81BF81E0E0EC93198108812D96089506
:100FBA00A881B981ED91A883B983AE2F08950E2F28
:100FCA000E94DD00AEE40E94D100A12F0E94F00031
:100FDA00A02F0E94F0000E94E500A2E0B0E00E946B
:100FEA003309198108810895A885B9858A859B8561
:100FFA000895EC81FD816E817F81F6CFFF276627F8
:10100A0077270E94C60908950E94500AA0E0B0E01E
:10101A0080E09FE30E94000A0895E0E0F0E060E8C3
:10102A007FE308950E949B0B0E94F90908950E948C
:10103A00500AEC87FD876E877F870895AC85BD854A
:10104A008E859F850895EC83FD836E837F83089543
:10105A00AC81BD818E819F8108950E94870B08957E
:10106A00E0E0F0E060E271E408950E947D0B0895EB
:10107A00A0E0B0E080E89FE30895EC81FD816E81F5
:10108A007F810895ED91FD913196FE93EE93089537
:10109A00BA93AA932497E0E0E883E9830895D8DF16
:1010AA00DFDF0E94500ACFCFE8DFC8DF0E94E30AE1
:1010BA000895C4DFEDECFCEC6CEC7DE3B8CFEDEC0D
:1010CA00FCEC6CEC7DE30895A885B9851196A88798
:1010DA00B98711970895E02FE05DEC93E02F08950A
:1010EA00B7DF0E94500A0895E885F9853196E887A6
:1010FA00F98708952A93AF81B885E985FA85099514
:10110A000895FE01E65AFF4F0190F081E02D0895FF
:10111A003497DE01A65ABF4FED93FC930895AF8131
:10112A00B885E985FA8509950895DE01A65ABF4F63
:10113A000D90BC91A02D0895EA87FB876C877D8767
:10114A000895DFDFE5CFEA85FB856C857D85089507
:10115A00EE87FF87AE85BF850E9428071E2F089558
:10116A00E4DF14960E946E0B0895E88BF98B6A8B64
:10117A007B8B08950B7FED89EA93DE01A95ABF4F55
:10118A000D90BC91A02DFE01E75AFF4F0190F0810E
:10119A00E02D099550300895E889F9896A897B8993
:1011AA00AA85BB858C859D850895DE011C960E94C3
:1011BA00030B0E946E0B0895AE81BF8188859985C5
:1011CA000895EE81FF81688579850895EE83FF830E
:1011DA00688779870895F5DFEFCF0E94500AEA837E
:1011EA00FB836C837D830895EA81FB816C817D8119
:1011FA000895AA85BB858C859D850895E0E0F0E079
:10120A0060E070E00895EA83FB836C837D83089530
:10121A00AA81BB818C819D810895E885F9856A85BB
:10122A007B850895EE81FF81FA93EA930895E98711
:10123A00FA876B877C870895AE81BF811196AE834A
:10124A00BF8311970895D0DFA985BA858B859C85C0
:10125A000895A985BA858B859C850895109639F0DD
:10126A0088E893E10197F1F7A8951197C9F70895CE
:10127A00E991F9916991799177FB660F771F882730
:10128A007E57880B7D938C937EE7769567956EF0F3
:10129A000895E991F9916991799177FB660F771F22
:1012AA007A0F769567950EF00895309760407040F2
:1012BA0009F070580895552342F4503811F4E0FFAC
:1012CA0004C03196691F791F6BF050E8572711F453
:1012DA005F93CFC05F3F31F0660F000C579567955B
:1012EA00752F08955F9300200AF0CFC0C8C050E858
:1012FA00192E1522880F991F9527550F879550E8A3
:10130A00072E0522660F771F7527550F67950895D3
:10131A00689401C0E8945F93F2DF703818F07F3F59
:10132A0008F4A7C056E1571BAAF4519558300EF499
:10133A00593030F0EFEFFFEF6FEF7FE777F91AC020
:10134A0077275523B9F0EE0FFF1F661F771F5A95AF
:10135A00D1F710C07727583028F0EF2FF62F672FD4
:10136A005850F9CF552331F076956795F795E7955B
:10137A005A95D1F700200AF445D15F9108956894EF
:10138A0001C0E894309760407040B1F0002426F024
:10139A00772312F4009436D1172E7EE1112032F011
:1013AA007A95EE0FFF1F661F111CF9CFEF2FF62F4C
:1013BA00612D5F938ADF5F9108954F93AF01FD011D
:1013CA00DA01AB01BC01CA01402D012C142E4F9148
:1013DA000895EA0FFB1F681F0895E095F095609540
:1013EA00EF5FFF4F6F4F08955F9381DF903871F180
:1013FA0050E8152604C05F937ADF903839F17038C7
:10140A0021F1572F591B2BF112F4D7DFFACF58319C
:10141A0018F0AA27BB278827583028F0AB2FB82FF7
:10142A0088275850F9CF552329F08695B795A7955F
:10143A005A95D9F7502D512572F0CBDF38F46795BC
:10144A00F795E795739513F420C0B7DF3EDF5F91F8
:10145A000895D8F7FBCFEA1BFB0B680B51F010F489
:10146A000094BBDF662392F3EE0FFF1F661F7A9587
:10147A00CBF7EE27FF27662777275F910895EFEFCF
:10148A00FFEF6FE77FEF5F910895EFEFFFEF6FE7F1
:10149A007FE75F9108955F932ADF703851F39038A0
:1014AA0041F301240894791F23F41CF300203AF332
:1014BA00ECCF0F921F932F933F934F93112722271D
:1014CA009927689FA0018F9F302D410D591F6B9F4F
:1014DA00300D411D591F8E9F27D0BF9F25D06A9F6F
:1014EA0023D0BE9F1DD0AF9F1BD0AE9F110D291FC9
:1014FA00391F491F591FE32FF42F652F522F4F9180
:10150A003F912F911F910F9066232AF0550FEE1FDE
:10151A00FF1F661F02C073954BF2CDDE5F910895DF
:10152A00100D211D391F02C0200D311D491F591FE1
:10153A0008955F93DCDE703821F411200AF49FCFFE
:10154A00A4CF903809F495CF01240894970B1BF483
:10155A00D4F30020F3CF792F1F932F933F934F9308
:10156A0011241127222733274427552790E2AE1743
:10157A00BF078607410730F0AE1BBF0B860B410B36
:10158A00089401C08894551F221F331F111CAA1FDB
:10159A00BB1F881F441F9A9551F7F901612D4F917E
:1015AA003F912F911F91662332F0550FEE1FFF1FB7
:1015BA00661F7A9543F27FDE5F91089599239AF028
:1015CA00772342F0971748F029F4AE17BF0786072A
:1015DA0020F031F098948894089598940894089586
:1015EA001894889408957723C2F7971798F3A9F760
:1015FA00EA17FB07680788F399F3ECCF0024AF0DCD
:10160A00B01D0895F09560957095E195FF4F6F4F65
:10161A007F4F0895FE2FFF0FFF0B6F2F7F2F089527
:10162A006F2F660F660B762F0895002498E0AA0F95
:10163A00001C0E1A10F40E0E01C0A1609A95B9F79B
:10164A00EA2FA02D089539D0F0DF0EF4E195089520
:10165A003F934F935F93002411244427552730E288
:10166A00AA0FBB1F881F991F001C111C441F551F5E
:10167A000E1A1F0A460B570B28F40E0E1F1E461F82
:10168A00571F01C0A1603A9559F7FD01BC01D0016D
:10169A00CA015F914F913F910895E894A7FF02C054
:1016AA00A1956894E7FDE195C0DFEA2F0EF4E19574
:1016BA000895CEDFFD01BC010895E894E7FF02C05A
:1016CA00E1956894A7FF04C0A19500F8039400FA75
:1016DA000895ED91FC9111970895ED91FD916D9109
:1016EA007C9113970895ED93FD936D937C930895E0
:1016FA00E881F9816A817B810895A881B9818A810B
:10170A009B810895E883F9836A837B830895E8833C
:10171A00E983EA83EB8308957A936A93FA93EA93C7
:10172A0008959A938A93BA93AA930895182E862FA6
:10173A00612D192E972F712D1B2EBF2FF12D1A2EC9
:10174A00AE2FE12D0895309760407040089500242F
:10175A000A160B06080609060895EA17FB07680722
:10176A00790708955A934A933A932A931A930A93B4
:10177A0008955D814C813B812A81198108810895F0
:00000001FF
